:020000040800F2
:1000000050290020053B0008490100084B01000869
:100010006F0100087301000877010008000000006C
:100020000000000000000000000000007B0100084C
:100030007D010008000000007F0100081D3B000852
:100040001F3B00081F3B00081F3B00081F3B000828
:100050001F3B00081F3B00081F3B0008BB62000855
:100060001F3B00081F3B00081F3B00081F3B000808
:100070001F3B00081F3B00081F3B00081F3B0008F8
:100080001F3B00081F3B00081F3B00081F3B0008E8
:100090001F3B00081F3B00081F3B00081F3B0008D8
:1000A0001F3B00081F3B00081F3B00081F3B0008C8
:1000B00081170008B31700081F3B00081F3B00080A
:1000C0001F3B00081F3B00081F3B00081F3B0008A8
:1000D0001F3B00084F0D000809520008210E0008C0
:1000E0001F3B00081F3B00081F3B00081F3B000888
:1000F0001F3B00081F3B00081F3B00081F3B000878
:100100001F3B00081F3B00081F3B00081F3B000867
:100110001F3B0008C75D00081F3B00081F3B00088D
:100120001F3B00081F3B00081F3B00081F3B000847
:10013000DFF810D006F0C8FD004800478707000828
:10014000AFF300805029002070470FE071B600BF68
:100150000B48006800F4E0600A490843001D0849A4
:100160000860BFF34F8F00BF00BFFEE7EEE700BFA0
:10017000FEE700BFFEE700BFFEE77047704770472D
:100180000CED00E00000FA0510B5FDA006F0EAFD58
:1001900010BD10B5FE48007860B106F081F8FD4A48
:1001A0000821012005F0F3FF4FF4FA7000F09DFCE8
:1001B00006F069F810BD2DE9F04F95B0FFF7E9FFA3
:1001C000F5480068B0F5FA6F58D304F0AFFC13900F
:1001D00004F002FD1290002004F0C8FE11900120EE
:1001E00004F0C4FE10900020EB490860E848007855
:1001F000002843D0E948006806F0AFFB04460D46EE
:10020000E748006806F0A9FB06460F46109806F07E
:10021000A4FB80468946119806F09FFB82468B46D8
:10022000129806F09AFBCDE90E01139806F095FBA3
:10023000CDE904ABCDE90689CDE90867CDE90A45EA
:10024000CDE90C01DDE90E01CDE90201DDE90C018A
:10025000D44ACDE90001D449D44806F093FDD449ED
:100260000860AFF2DB0000210091CDE90110D04819
:10027000CE4AD0490368D04803F086FE15B0BDE8E9
:10028000F08F2DE9FE436A4601A902A805F05AFA4B
:10029000BDF9080006F037FB07460022C74B06F001
:1002A000BEFA054606F084FB0446BDF9040006F0DC
:1002B0002AFB07460022C14B06F0B1FA054606F0BC
:1002C00077FB8146204606F048FB21F000410546B9
:1002D0000022BB4B06F054FB0AD3484606F03DFB18
:1002E00021F0004105460022B54B06F049FB03D240
:1002F0000120B449087002E00020B2490870B148FA
:100300000078BDE8FE83B04A1278002A6CD0002144
:1003100060E0AE4A525C6D2A5AD1AC4B4A1C9A5CE2
:100320006D2A55D100290CDD4A1E9A5C302A08DB63
:100330004A1E9A5C392A04DC4A1E9A5C303AA44B65
:100340001A80012913DD8A1EA04B9A5C302A0EDB2D
:100350008A1E9A5C392A0ADC8A1E9A5C303A02EBC1
:1003600082029B4B1B8803EB4202994B1A800229A5
:1003700015DDCA1E954B9A5C302A10DBCA1E9A5CAA
:10038000392A0CDCCA1E9A5C303A02EBC20303EB3A
:1003900002128F4B1B8803EB82028D4B1A800329BC
:1003A00015DD0A1F894B9A5C302A10DB0A1F9A5C04
:1003B000392A0CDC0A1F9A5C303A02EB4203C3EB89
:1003C000C212834B1B8803EBC202814B1A8005E0EB
:1003D0004A1CD1B27F4A127891429ADB00BF0022B8
:1003E000794B1A707B4B1A70794A1288B2F5FA7FF2
:1003F00001DC012000E00020704710B5764800685D
:1004000018B975480830006808B1012000E00020E4
:1004100008B900241FE07048006830B16E48001D24
:100420000068012801D1012415E06B48006830B153
:10043000694808300068012801D102240BE06648B1
:100440007C30006838B164480830006818B903246B
:10045000012004F04AFC204610BDFEB505460E46BC
:1004600014461F464F4A5DA1504806F08BFC4F4989
:10047000204605F0B7FF002831D05BA1204605F0EB
:10048000B1FF68B301205B49087004F02EFC012025
:1004900051497C31086000205749C1F88801012189
:1004A000564803F055F80021544803F00BF8012199
:1004B000524802F073FD012251A13C4806F062FC53
:1004C0003B490860AFF23F3000210091CDE90110B7
:1004D0003748364A37490368374803F055FDFAE094
:1004E0004BA1204605F07EFF00282FD00220414975
:1004F000087004F0FAFB012037497C3108600020C5
:100500003D49C1F888014549086001213B4803F095
:100510001FF80021394802F0D5FF0121374802F0C9
:100520003DFD022236A1214806F02CFC204908603E
:10053000AFF2AB3000210091CDE901101C481B4AFD
:100540001C4903681C4803F01FFDC4E034A1204689
:1005500005F048FF90B1032026490870022004F0FE
:10056000C4FB01201C497C31086000202249C1F8ED
:1005700088012A4908600121204857E076E0000000
:100580000D0AB7A2B2BCB3C9B9A60D0A000000009B
:10059000780100203E010020A8010020F401002085
:1005A000F001002010030020747700080C020020E6
:1005B00004000020E4000020881A002000006940A8
:1005C000008046400C000020DA010020402300207B
:1005D000DC010020D90100201C0122422269642292
:1005E0003A222573220000002274696D65223A3296
:1005F000300000009E010020000023420004004063
:100600007B226D6F6465223A222564227D00000002
:100610002274696D65223A33300000009001234254
:100620002274696D65223A343000000002F090FFB8
:100630000021C64802F046FF0121C44802F0AEFC8A
:100640000322AFF24401C24806F09CFBC149086096
:10065000AFF2CB4000210091CDE90110BD48BC4A6A
:10066000BD490368BD4803F08FFC34E0BCA12046BF
:1006700005F0B8FE78B30420BC490870022004F0ED
:1006800034FB0120BA4908600020BA49C1F888014A
:10069000B94908600121AD4802F05AFF0021AB487A
:1006A00002F010FF0121A94802F078FC0422AFF209
:1006B000B001A74806F066FBA6490860AFF23750C4
:1006C00000210091CDE90110A248A14AA249036886
:1006D000A24803F059FCA9A1204605F083FEF0B121
:1006E0000020A349086004F000FB0120A149C1F8E3
:1006F0008C01A1490860A4A2A5A1954806F042FB7F
:1007000094490860AFF27F5000210091CDE90110BB
:1007100090488F4A90490368904803F035FCFEBD2D
:1007200010B58E4803F0D8FB00209D4908609D4914
:1007300008709DA006F016FB10BD10B50446A6A0DB
:1007400006F010FB10BD10B50446A8A006F00AFB89
:1007500010BD08B51E21AA4805F039FEAFF22500EC
:10076000AFF21D030022A74900907C4803F0F0FB84
:10077000AFF23900AFF231030022A349009077486D
:1007800003F0E6FB08BD00F059F94FF4E1310846EB
:1007900000F0D8F94FF4165004F091FD00F01EFC63
:1007A00000F066F900F088FF41F61F4147F2305033
:1007B00000F0B9FF05F052F904F0B0F904F070FA56
:1007C00004F0D0FA04F0C6FB04F0D8FD04F0D3FE28
:1007D0004FF4E13005F078FA05F008FB05F098FBDE
:1007E000012005F0B2FB022005F0AFFB032005F06D
:1007F000ACFB042005F0A9FB0521012005F030FC2D
:100800000F21022005F02CFC0F21032005F028FC0D
:100810000F21042005F024FC05F014FD4F4803F0DF
:100820005BFBAFF2D1014D4803F089FBAFF20F1132
:100830004A4803F087FBAFF2DD31484803F085FBFF
:100840004FF44371062000F021FF70A006F08AFAF1
:1008500046E000F02DFFFFF7D0FD6E490870FFF76E
:1008600052FD6D490870FFF70CFD6C490870404857
:10087000006828B96A48006810B9022004F035FA07
:1008800000F0C3FC4748007828B1344803F04CF925
:10089000324803F00CFB634A6349A2F10C0003F0F9
:1008A00083FF60480C38C068002817DD5F48006887
:1008B00048B15D485D49096888475A480C38C168A5
:1008C000594805F084FD3748007838B155480C3850
:1008D000808982B25449214803F094F9FFF76BFCF8
:1008E000B7E72DE9FF41244808380068C4B2214821
:1008F000D0F88C01C5B24748067847480778474882
:1009000090F8008027480078E8B12346484A4949D2
:100910000F48CDE90268CDE9005706F033FA0D49DA
:100920000860AFF29B7001210022CDE90021029006
:100930000848074A40490368084803F025FB4FF47C
:100940007A7000F0D2F8BDE8FF810000000400409A
:100950000C02002004000020E4000020881A00207F
:100960002274696D65223A35300000009E01002036
:1009700098012242000023429001234222737461B5
:10098000747573223A300000636C6F736500000069
:100990007B22737461747573223A222573227D0061
:1009A00074010020780100200D0AC1ACBDD3B6CF80
:1009B000BFAA2A2A2A2A2A2A2A2A2A2A2A2A2A2A82
:1009C0002A2A2A2A2A2A2A2A2A2A2A2A2A2A2A2A87
:1009D0002A2A0D0A000000000D0AB6A9D4C4D6F7D1
:1009E000CCE2CAA7B0DC0D0A000000000D0AB3C9B2
:1009F000B9A6B6A9D4C4D6F7CCE20D0A000000000F
:100A00006003002002010020200100207374617245
:100A1000740D0A000A0000200B0000200C000020CA
:100A2000B0812242A00E0020D01200206C010020D4
:100A300010030020E8770008C600002010B54FF42E
:100A4000A06001F089F810BD71B600BF06480068CB
:100A500000F4E06005490843001D03490860BFF346
:100A60004F8F00BF00BFFEE70CED00E00000FA056D
:100A700010B56FF0040001F0BEF82E4800682E4952
:100A8000B0FBF1F02D4908700846007800EB4001FA
:100A9000C1EBC0104FF6FF7101EAC0002849088081
:100AA00010BD0146254A12784A434FF0E0235A61AF
:100AB00000229A611A46126942F001021A6100BFCF
:100AC0004FF0E022106900F001021AB100F4803208
:100AD000002AF5D04FF0E022126922F001024FF017
:100AE000E0231A6100229A6170470146144A128875
:100AF0004A434FF0E0235A6100229A611A46126974
:100B000042F001021A6100BF4FF0E022106900F0CC
:100B100001021AB100F48032002AF5D04FF0E02231
:100B2000126922F001024FF0E0231A6100229A615B
:100B300070470000AC01002000127A00460100203E
:100B40004801002030B587B005460C464FF480625E
:100B5000FC49FD4803F048FEC820FC4B4FF480627E
:100B6000FB490090FB4803F0D5FDC820FA4B4FF439
:100B70008062FA490090FA4803F0CCFD25208DF8F8
:100B8000040003208DF805008DF8060001208DF883
:100B9000070001A800F0E5FF27208DF804000020E1
:100BA0008DF805008DF8060001208DF8070001A8DA
:100BB00000F0D7FF0121880401F0B7F9012144F2C8
:100BC000250001F0A5F90121E64801F03AFD4FF4B6
:100BD0000070ADF8180003208DF81A0018208DF869
:100BE0001B0006A9E04801F05BFC4FF48060ADF803
:100BF000180004208DF81B0006A9DB4801F050FC0A
:100C00004FF48070ADF8180003208DF81A001820FA
:100C10008DF81B0006A9D54801F042FC4FF4007086
:100C2000ADF8180004208DF81B0006A9CF4801F08C
:100C300037FC0020ADF80C00ADF80E00ADF8100048
:100C4000ADF814000C20ADF81200029502A9C848B6
:100C500001F005FA029402A9C64801F000FA012247
:100C600040F22551C24801F092FA012240F225518A
:100C7000C04801F08CFA012240F22441BC4801F046
:100C800086FA012240F22441BA4801F080FA01219B
:100C9000B74801F070FA0121B64801F06CFA07B0CC
:100CA00030BD70B504460D461646B14884420BD19E
:100CB00032462946A44803F0A1FE012240F22771E2
:100CC000204601F064FA1CE0AA48844219D1AA48DF
:100CD0000560AA480660012240F22771204601F013
:100CE00056FA0B22A6A1984803F088FE3246294600
:100CF000954803F083FE012240F227719C4801F0E1
:100D000046FA70BD70B506460C4615460BE014F861
:100D1000011B304601F09CFA00BF8021304601F0F3
:100D200005FB0028F9D0281EA5F10105EFD170BD03
:100D300070B504460D462946204601F089FA00BFE9
:100D40008021204601F0F2FA0028F9D070BD38B5B4
:100D500040F22551864801F0FFFAA0B1844801F025
:100D60007BFAC4B289488A490968445488480068B3
:100D7000401C8749086008460068B0F5FB7F16D91B
:100D80000020086013E040F22441794801F0E4FAC1
:100D900001280CD17648001D00886B467C487B49B1
:100DA00002686C4803F0D6FC00207949086040F2E4
:100DB00027716F4801F0D0FA00B3634803F03EFD9D
:100DC00000280ADD012273495F4803F068FD71487D
:100DD0000178674801F03CFA10E040F2277164485E
:100DE00001F0E4FA002240F22771614801F0CFF9E6
:100DF000012240F226615E4801F0C9F940F2266105
:100E00005B4801F0A9FA50B140F22661584801F060
:100E1000CDFA002240F22661554801F0B8F938BDFC
:100E200038B540F22551534801F096FAA0B1514827
:100E300001F012FAC4B25848584909684454574856
:100E40000068401C5549086008460068B0F5FB7F03
:100E500027D90020086024E040F22441454801F0F1
:100E60007BFA01281DD14348001D00886B464B4882
:100E7000494902683A4803F06DFC0B2248A1324808
:100E800003F0BCFD4548444902682F4803F0B6FD15
:100E9000012240F22771364801F079F900203F49DC
:100EA000086040F22771334801F056FA40B33348E6
:100EB000006880B13048006801782E4801F0C8F918
:100EC0002D480068401C2C4908602C480068401ED2
:100ED0002A49086014E000203449C1F8600840F253
:100EE0002771244801F062FA002240F2277121485C
:100EF00001F04DF9012240F226611E4801F047F948
:100F000040F226611B4801F027FA50B140F22661F9
:100F1000184801F04BFA002240F22661154801F012
:100F200036F938BD38B504460D46E0B20090204889
:100F3000007830B901201E49087040F226610C4843
:100F400038E039E0940A0020BC030020CC070020E0
:100F5000CC03002080030020D0140020D00E0020FD
:100F6000940E0020300014000008014000140140DD
:100F700000380140004800404C010020640100207E
:100F80000D0A3E3EB7A2CBCD3A0D0A0098150020BF
:100F9000500100205401002098170020600100201B
:100FA0000D0A3C3CBDD3CAD53A0D0A00881A002070
:100FB0006801002001F0FAF901226946054803F0B2
:100FC0001DFD012240F22771034801F0E0F82046A0
:100FD00038BD0000BC0300200038014008B50121E5
:100FE0007D2000F095FF7C20ADF8000010208DF8EA
:100FF000030003208DF8020069460D4801F050FA05
:101000007C210B4801F0F9FA4FF47C40ADF8000068
:1010100010208DF8030003208DF802006946054872
:1010200001F03EFA4FF47841024801F0E8FA08BDB9
:10103000001801400014014010B50446F3A2F3A1CA
:10104000204600F0C8FAF24908600846006805F03A
:10105000DBF90F2816D13221EE4805F0B8F90F223E
:10106000EB480168EB4805F099F90120EA4908705E
:10107000EA48006810B9EA48006801E0E7480068FB
:10108000E749086000F09EFA10BD38B51E21E5481A
:1010900005F09DF9DF4BE4A2E5A1E24805F072FE00
:1010A000DC48E549C1F88008E4480178E248C0F826
:1010B0009418E349C0F88418E249C0F88818D9495F
:1010C000C0F88C18E049C0F89018E0480178DA4878
:1010D000C0F89818DE480178D748C0F89C1801215C
:1010E000C0F8A018694602F00FFF0446002C04DD8A
:1010F0002246D8480099FFF7D4FD38BD10B5044604
:10110000204602F00EFFA0B90120C3490870C34871
:10111000006810B9C248006801E0C0480068C049D2
:101120000860C548D0F8680818B1C349D1F8680804
:10113000804710BD2DE9F04704460D4617461E4670
:10114000DDE90889C44805F05FF982465146C24886
:1011500005F03DF9C14805F057F982465146BF48B0
:1011600005F035F927B13A46BDA1BB4805F00AFEA6
:1011700026B13246BAA1B94805F004FE05B1A84728
:10118000B848C0F80080A548C0F8009064B1224675
:10119000B3A1B54805F0F6FDB44908600846B24968
:1011A0000268AC48FFF77DFDBDE8F08710B5044646
:1011B000A94805F029F988B1A749204605F012F998
:1011C00060B10120944908709448006810B99448AF
:1011D000006801E091480068914908609F4805F067
:1011E00013F988B19D49204605F0FCF860B1012053
:1011F000894908708948006810B98948006801E089
:10120000864800688649086010BD1CB5844800689F
:101210009749096888426ED99648007800286AD1B3
:101220007F4908607C48007801280AD10020924953
:1012300008607949087091480068401C8F4908602F
:101240000CE08D480068401C8B4908600846006827
:10125000032803DB0020086088490860874800688D
:101260000D2870D2DFE800F007111C2D3A485562B6
:10127000707D8A97B10001208149086064207C4913
:101280000860012064490870BEE000207C490860C5
:1012900041F288307649086001205F490870B3E068
:1012A00040F6B8307249086008460068AFF2031192
:1012B000002374A2CDE90010194674A0FFF73AFF8D
:1012C000A2E06B480068AFF28F2100231A46CDE9F7
:1012D0000010194671A0FFF72DFF95E064480068E3
:1012E000AFF23711002370A2CDE9001019466FA0AC
:1012F000FFF720FF88E088E05D480068AFF25311F7
:1013000000236DA2CDE9001019466EA0FFF712FF71
:101310007AE057480068AFF26B1100236CA2CDE968
:10132000001019466DA0FFF705FF6DE050480068FA
:10133000AFF2871100235CA2CDE9001019466AA024
:10134000FFF7F8FE60E04EE049480068AFF2A311F5
:10135000002355A2CDE90010194667A0FFF7EAFE69
:1013600052E043480068AFF2BB1100234EA2CDE922
:101370000010194664A0FFF7DDFE45E03C48006818
:10138000AFF2D711002348A2CDE90010194661A0A1
:10139000FFF7D0FE38E0624B624A63A1324805F0A5
:1013A000F1FC3249086000202F49304A1268885405
:1013B0002F480068AFF20B21002362A2CDE9001094
:1013C00019462948FFF7B6FE1EE029480068AFF22B
:1013D000D32100231A46CDE90010AFF2513118464F
:1013E000FFF7A8FE10E02248006800210B460A46DD
:1013F000CDE900100846FFF79DFE00200649087061
:1014000001201C49087000BF00BF1CBD0D0A000070
:10141000000000201003002088010020800100202F
:1014200070010020420300206465766963652F0027
:101430002573257300000000881A00209100002009
:101440004B0000205F00002092000020C40000201C
:10145000C500002000480040601A0020741A0020D7
:10146000257300006C0100200C0200200400002005
:101470007C010020780100208401002074010020FC
:10148000A881224253485554204F4B0041542B43CE
:101490004950534855540D0A0000000041542B4751
:1014A000534E0D0A000000004F4B000041542B43E7
:1014B00050494E3F0D0A00002B43475245473A2002
:1014C000302C310041542B43475245473F0D0A0011
:1014D0002B43474154543A203100000041542B43E0
:1014E000474154543F0D0A0041542B4349504D5538
:1014F000583D300D0A00000041542B4349504D4FD8
:1015000044453D310D0A000041542B435354540DC2
:101510000A00000041542B43494943520D0A000080
:10152000440000200D00002041542B4349505354E7
:101530004152543D22544350222C222573222C2503
:10154000730D0A00434F4E4E4543540010B54C48AE
:10155000006806F08BF810BD2DE9F04781460F4674
:101560009046002400260025384604F04DFFC5B201
:101570003946484604F036FF04460CB36119481C4E
:10158000414604F02FFF0646C6B16119711A481C86
:1015900006F094F83A4908606019301A411C38483E
:1015A000006804F014FF6019321A611934480068A9
:1015B00004F0F4FE32480068BDE8F0870020FBE745
:1015C0000020F9E72F48006820B12F4800782D4906
:1015D0000968087070472DE9F04180460D461646AF
:1015E00000240027284604F00FFFC7B229464046D2
:1015F00004F0F8FE0446BCB1E119481C314604F081
:10160000F1FE204908600846006858B108460068A5
:1016100000781D49087000201A4909680870E0190F
:10162000BDE8F0810020FBE70020F9E72DE9F04755
:1016300007460E46144698464FF000091FB138463B
:1016400004F0E2FE08B9BDE8F0871EB1304604F0B0
:10165000DBFE00B9F7E73146384604F0DDFE05460B
:1016600008E004B120C409F101093146002004F06A
:10167000D3FE0546002DF4D1C8F8009000BFE2E784
:101680008C010020900100209401002070B50546D7
:101690000C4645F2555001F05FFF284601F05FFF10
:1016A000204601F05FFF01F060FF01F063FF70BDB5
:1016B00010B501F05AFF10BD1FB51C208DF80000B9
:1016C00001208DF8030002208DF8010003208DF821
:1016D0000200684600F045FA0121084600F025FCAA
:1016E0004FF0804001F02AF80020ADF80A00ADF874
:1016F00006000A20ADF8080041F61F40ADF80400CE
:1017000001A94FF0804001F0EDF80121880701F0B8
:101710001FFF0121880701F041FC012211469007BB
:1017200001F057FC1FBD7FB505460C460121022084
:1017300000F0FBFBADF80850ADF804400020ADF818
:101740000A00ADF8060001A9814801F0CBF801229A
:1017500011467F4801F03DFC1D208DF8000000205F
:101760008DF8010003208DF8020001208DF80300A0
:10177000684600F0F6F90121754801F0E9FE7FBDE9
:1017800010B50121880701F0D2FE012810D10121F6
:10179000800701F0DDFE6F480068401C6D4908605D
:1017A0006D480068401C6C4908606C4802F00FFBF3
:1017B00010BD10B50121664801F0B9FE002877D0B0
:1017C0000121634801F0C4FE65480078401C64496B
:1017D000087064480078401C6249087062480078CC
:1017E000012806D002283DD0032862D0042838D131
:1017F00085E05B480078052802D100205B4908603D
:10180000574800780A2802D10120584908605548F5
:101810000078072803D100205449091F0860514867
:1018200000780F2803D101205049091F08604D4856
:101830000078142815D101204C49091F08604C4933
:10184000C1F8880100204B490860032003F04DFADD
:1018500000213F4801F0A2FB0020414908704149A6
:10186000087072E03E4800780A2806DB01203F49F4
:10187000086000203E49C1F88C013A4800781428DD
:1018800015DB01203949091F08603949C1F8880171
:10189000002038490860032003F027FA00212C4873
:1018A00001F07CFB00202E4908702E4908704CE0A6
:1018B0004CE02B4800780F2806DB01202B490860FC
:1018C00000202B49C1F88C0126480078192815DB27
:1018D00001202649091F08602549C1F88801002018
:1018E00024490860032003F000FA0021184801F0A1
:1018F00055FB00201A4908701A49087025E018485D
:101900000078142806DB01201849086000201849D7
:10191000C1F88C01134800781E2815DB01201349FB
:10192000091F08601249C1F88801002011490860A8
:10193000032003F0DAF90021054801F02FFB002015
:10194000074908700749087000BF00BF10BD0000BC
:1019500000040040A801002070010020881A002027
:101960009C0100209D0100209E0100209001234247
:1019700000002342980122420CB500200190009003
:101980006C48006840F480306A49086000BF6948CC
:10199000006800F4003000900198401C019000980D
:1019A00018B90198B0F5A06FF1D16248006800F451
:1019B000003010B10120009001E00020009000985C
:1019C000012843D15C48006840F010005A49086083
:1019D0000846006820F0030008600846006840F0F0
:1019E0000200086053484068524948600846406811
:1019F00048600846406840F4806048600846406897
:101A000020F47C1048600846406840F4E8104860C4
:101A10000846006840F08070086000BF45480068D4
:101A200000F000700028F9D04248406820F0030020
:101A3000404948600846406840F00200486000BFE6
:101A40003C48406800F00C000828F9D10CBD10B5E6
:101A5000FFF792FF10BD10B53648006840F0010056
:101A600034490860084640683449084031494860B4
:101A700008460068324908402E4908600846006858
:101A800020F4802008600846406820F4FE0048608A
:101A90004FF41F008860FFF7DAFF4FF0006029491C
:101AA000086010BD10B5002100200022214B5B68AA
:101AB00003F00C0121B1042906D0082928D107E040
:101AC000214B224C236027E01F4B204C236023E056
:101AD000184B5B6803F47010164B5B6803F480329C
:101AE000022303EB904022B9194B4343174C236068
:101AF0000DE0104B5B6803F4003323B1144B4343F8
:101B0000124C236003E0104B4343104C236003E06E
:101B10000D4B0E4C236000BF00BF064B5B68C3F348
:101B200003130C4CE15C094B1B68CB40074C236052
:101B300010BD000000100240002002400000FFF82D
:101B4000FFFFF6FE08ED00E000127A00AC01002075
:101B500000093D00B001002031490143314A1160C4
:101B6000704770B5002100230F22C47804B32D4CB8
:101B7000246804F4E064C4F5E064210AC1F10403BC
:101B8000CA40447804FA03F18478144021430901DF
:101B9000254C0678A155047804F01F050124AC40BB
:101BA00005786D11AD0005F1E025C5F8004109E0AB
:101BB000047804F01F050124AC401C4D0678761112
:101BC00045F8264070BD1A4A0A400243154B1B1FB8
:101BD0001A60704739B1134A121D12680243114B43
:101BE0001B1D1A6006E00F4A121D126882430D4B3E
:101BF0001B1D1A607047042808D14FF0E0210969C5
:101C000041F004014FF0E022116107E04FF0E021C4
:101C1000096921F004014FF0E022116170470000D2
:101C20000000FA050CED00E000E400E080E100E0D7
:101C300080FFFF1FDF48006840F00100DD490860B9
:101C400008464068DC490840DA49486008460068B0
:101C5000DA490840D74908600846006820F4802027
:101C600008600846406820F4FE0048604FF41F00FA
:101C700088607047CF49096821F48031CD4A1160EE
:101C80001146096821F480211160B0F5803F03D02E
:101C9000B0F5802F0ED106E0C649096841F48031C5
:101CA000C44A116007E0C349096841F4A021C14A50
:101CB000116000E000BF00BF704710B50146002270
:101CC000002300204A11012A02D1BA4C236806E001
:101CD000022A02D1B74C236A01E0B64C636A01F0D4
:101CE0001F02012494401C400CB1012000E00020A0
:101CF00010BD38B5002000900024002500BF312021
:101D0000FFF7DBFF05460098401C00900098B0F5F7
:101D1000A06F01D0002DF2D03120FFF7CEFF08B127
:101D2000012400E00024204638BD01460020A14ADD
:101D3000106820F0F80040EAC10010607047A04928
:101D400008607047024600209A4B586820F47C10C7
:101D500042EA01031843974B586070479849086658
:101D6000704701460020934A506820F00300084362
:101D7000506070478F48406800F00C007047014683
:101D800000208C4A506820F0F000084350607047F3
:101D900001460020874A506820F4E0600843506004
:101DA000704701460020834A506820F4605040EAA2
:101DB000C1005060704729B17E4A527A02437D4B80
:101DC0005A7204E07B4A527A82437A4B5A727047C5
:101DD0007B49D8310860704701460020754A506839
:101DE00020F440400843506070470021714A20327F
:101DF0001170704A82F82010012802D004280AD1FC
:101E000004E001216B4A2032117005E00521694A86
:101E10002032117000E000BF00BF704769490860C0
:101E200070476449096A0143624A11627047654913
:101E300044390860704730B5002100220024002397
:101E40005C4D6D6805F00C0121B1042905D008290D
:101E500023D105E05C4D056022E05B4D05601FE08D
:101E6000544D6D6805F47012524D6D6805F4803460
:101E7000022505EB92421CB9544D554305600BE019
:101E80004C4D6D6805F400351DB1504D554305604E
:101E900002E04D4D5543056002E04B4D056000BF2B
:101EA00000BF444D6D6805F0F0010909484D6B5CB9
:101EB0000568DD4045603F4D6D6805F4E061090A45
:101EC000434D6B5C4568DD4085603A4D6D6805F4B7
:101ED0006051C90A3E4D6B5C4568DD40C560354DBB
:101EE0006D6805F44041890B3A4D6B5CC568B5FBE4
:101EF000F3F5056130BD29B12E4A526902432D4BDD
:101F00005A6104E02B4A526982432A4B5A61704756
:101F100029B1284A92690243264B9A6104E0254A76
:101F200092698243234B9A61704729B1214AD26951
:101F30000243204BDA6104E01E4AD26982431D4B02
:101F4000DA61704729B11B4AD2680243194BDA6043
:101F500004E0184AD2688243164BDA60704729B110
:101F6000144A12690243134B1A6104E0114A1269C0
:101F70008243104B1A61704712494039086070471C
:101F80000F49C86470470B49C87170470948406AD7
:101F900040F0807007494862704701460020054ABA
:101FA00092680A400AB1012000E000207047014910
:101FB00088727047001002400000FFF8FFFFF6FE35
:101FC000000042428004424200127A0000093D00B3
:101FD000C0010020D001002010B50446FB48844217
:101FE00009D101218803FFF7ADFF00214FF48040A4
:101FF000FFF7A8FF32E0F648844209D101214804E6
:10200000FFF7ADFF00214FF40030FFF7A8FF25E0F8
:10201000F048844209D101218804FFF7A0FF002184
:102020004FF48020FFF79BFF18E0EB48844209D172
:102030000121C804FFF793FF00214FF40020FFF7B0
:102040008EFF0BE0E548844208D101210805FFF727
:1020500086FF00214FF48010FFF781FF10BD2DE9AE
:10206000F04786B005460E460024A24600BFA146B2
:102070000027B08900B100BF2F462C8A4CF6FF70B4
:102080000440F08804432C82AC894EF6F3100440DF
:10209000B08831890843718908430443AC81AC8A14
:1020A0004FF6FF400440B0890443AC8201A8FFF71B
:1020B000C2FEC648874202D1DDF810A001E0DDF87B
:1020C0000CA0A88900F4004040B10AEBCA0000EB64
:1020D0000A1031684900B0FBF1F807E00AEBCA00CA
:1020E00000EB0A1031688900B0FBF1F86420B8FBFE
:1020F000F0F004012009642101FB1089A88900F493
:10210000004040B1322000EBC900B0FBF1F000F01C
:102110000700044308E0322000EB09106421B0FB03
:10212000F1F000F00F0004432C8106B0BDE8F08709
:102130004FF41651016000218180C18001810C2182
:10214000418100218181704710B502460020108A2C
:102150004FF2FF0318400B884C8823438C8823439D
:10216000CC8823431843108210BD00210180418098
:102170008180C180704721B1828942F400528281FE
:1021800004E082894DF6FF731A4082817047F0B5F2
:102190000346002400260025002040F66A17B942B5
:1021A00000D100BF1846C1F3421401F01F060127F9
:1021B00007FA06F5012C01D10C3004E0022C01D104
:1021C000103000E014301AB107682F43076002E0B6
:1021D0000768AF430760F0BD1AB1838A0B4383825F
:1021E00002E0838A8B4383827047028A4FF6F07342
:1021F0001A400282028A0A430282704782894FF2A1
:10220000FF731A40828182890A438281704721B11B
:10221000828942F00202828104E082894FF6FD73D6
:102220001A4082817047028A4FF6DF731A40028299
:10223000028A0A430282704721B1028A42F4804234
:10224000028204E0028A4BF6FF731A400282704752
:10225000C1F308028280704701468888C0F30800F5
:102260007047818941F0010181817047028BD2B2B0
:102270000283028B42EA012202837047028B02F43E
:102280007F420283028B0A430283704721B1828A14
:1022900042F02002828204E0828A4FF6DF731A4005
:1022A0008282704721B1828A42F01002828204E069
:1022B000828A4FF6EF731A408282704721B1828A78
:1022C00042F00802828204E0828A4FF6F7731A40D5
:1022D0008282704721B1828942F40042828103E008
:1022E0008289C2F30E028281704721B1828A42F450
:1022F0000062828204E0828A4FF2FF731A40828277
:102300007047828A4FF6FB731A408282828A0A43A0
:102310008282704721B1828A42F00202828204E006
:10232000828A4FF6FD731A4082827047024600206F
:10233000B1F5007F00D100BF13880B400BB1012025
:1023400000E00020704701F40072B2F5007F00D178
:1023500000BFCA430280704770B5024600240023C4
:102360000025002040F66A16B14200D100BFC1F33B
:10237000421501F01F03012606FA03F3012D02D1D5
:102380009689334006E0022D02D1168A334001E0DF
:10239000968A33400C12012606FA04F4168834405B
:1023A00013B10CB1012000E0002070BD10B5002277
:1023B000002340F66A14A14200D100BF0A12012492
:1023C0009440A3B2DC43048010BD000000380140FB
:1023D0000044004000480040004C004000500040D5
:1023E00010B50446CC48844208D101210420FFF7EF
:1023F000A9FD00210420FFF7A5FD46E0C74884425F
:1024000008D101210820FFF79DFD00210820FFF7DA
:1024100099FD3AE0C248844208D101211020FFF71B
:1024200091FD00211020FFF78DFD2EE0BD48844274
:1024300008D101212020FFF785FD00212020FFF792
:1024400081FD22E0B848844208D101214020FFF7F5
:1024500079FD00214020FFF775FD16E0B348844266
:1024600008D101218020FFF76DFD00218020FFF7BA
:1024700069FD0AE0AE48844207D101218015FFF7CB
:1024800061FD0021A015FFF75DFD10BD10B5012114
:102490000846FFF757FD00210120FFF753FD10BD4F
:1024A0002DE9F041024600250026002000230024EB
:1024B000002791F803C00CF00F0591F803C00CF051
:1024C000100CBCF1000F03D091F802C04CEA0505D6
:1024D00091F800C0BCF1000F31D0146800202BE04F
:1024E0004FF0010C0CFA00F3B1F800C00CEA03063F
:1024F0009E4220D183004FF00F0C0CFA03F7BC432F
:1025000005FA03FC4CEA040491F803C0BCF1280F5F
:1025100006D14FF0010C0CFA00FCC2F814C00AE01E
:1025200091F803C0BCF1480F05D14FF0010C0CFA33
:1025300000FCC2F810C0401C0828D1D31460B1F8C8
:1025400000C0BCF1FF0F34DD546800202EE000F124
:10255000080C4FF0010808FA0CF3B1F800C00CEABF
:1025600003069E4221D183004FF00F0C0CFA03F7B3
:10257000BC4305FA03FC4CEA040491F803C0BCF127
:10258000280F05D100F1080C08FA0CF8C2F81480E5
:1025900091F803C0BCF1480F07D100F1080C4FF0CF
:1025A000010808FA0CF8C2F81080401C0828CED3A5
:1025B0005460BDE8F0814FF6FF7101800221817007
:1025C0000421C17070470246002093680B400BB194
:1025D000012000E0002070470146886880B2704703
:1025E00002460020D3680B400BB1012000E0002020
:1025F00070470146C86880B2704701617047416109
:1026000070470AB1016100E041617047C1607047E5
:102610004FF480320A4382618161826182698269FA
:10262000704702460020434B18684FF680731840ED
:1026300040EA021008433F4B186070473E49C861AA
:102640007047F0B50A46002300240021002500F061
:102650000046B6F1004F02D1364EF16901E0354E29
:102660007168C0F3034583B200F44016B6F5401F0D
:1026700008D121F070612F4E766826F070662D4FDC
:102680007E6012E000F48016B6F5801F06D10326A6
:1026900006FA05F4A14341F0706106E0460D3601EB
:1026A00003FA06F6B14341F0706122B1460D3601DE
:1026B00003FA06F6314300F00046B6F1004F02D1AE
:1026C0001C4EF16101E01B4E7160F0BD30B500227F
:1026D0008B071C0F0F2303FA04F2164B08338C10E0
:1026E00053F824309343134C08348D1044F82530AC
:1026F00023468C1053F824308C07240F00FA04F47E
:1027000023430C4C08348D1044F8253030BD0A4961
:10271000DC3108607047000000080140000C0140F7
:10272000001001400014014000180140001C01404D
:1027300000200140000001400000204210B5044686
:10274000FE48844208D10121C014FFF7FBFB0021A1
:10275000E014FFF7F7FBC4E0B4F1804F08D101218A
:102760000846FFF7FCFB00210120FFF7F8FBB8E06B
:10277000F348844208D101210220FFF7F0FB002139
:102780000220FFF7ECFBACE0EE48844208D10121C7
:102790000420FFF7E4FB00210420FFF7E0FBA0E0AA
:1027A000E948844208D101210820FFF7D8FB002125
:1027B0000820FFF7D4FB94E0E448844208D10121CB
:1027C0001020FFF7CCFB00211020FFF7C8FB88E0AA
:1027D000DF48844208D101212020FFF7C0FB0021FF
:1027E0002020FFF7BCFB7CE0DA48844208D10121BD
:1027F0004014FFF7A7FB00216014FFF7A3FB70E074
:10280000D548844209D10121C804FFF79BFB002170
:102810004FF40020FFF796FB63E0D048844209D1D3
:1028200001210805FFF78EFB00214FF48010FFF710
:1028300089FB56E0CA48844209D101214805FFF7C7
:1028400081FB00214FF40010FFF77CFB49E0C548F5
:10285000844208D101214020FFF781FB0021402064
:10286000FFF77DFB3DE0C048844208D10121802074
:10287000FFF775FB00218020FFF771FB31E0BB48BB
:10288000844208D101218015FFF769FB0021A015C2
:10289000FFF765FB25E0B648844209D10121080411
:1028A000FFF750FB00214FF48030FFF74BFB18E09F
:1028B000B048844209D101214804FFF743FB0021BD
:1028C0004FF40030FFF73EFB0BE0AB48844208D1E9
:1028D00001218804FFF736FB00214FF48020FFF729
:1028E00031FB10BD00220288944B98420ED0994BC8
:1028F00098420BD0B0F1804F08D0914B984205D050
:10290000904B984202D0904B984204D14FF68F736F
:102910001A404B881A438D4B984207D08C4B9842F3
:1029200004D04FF6FF431A40CB881A4302808B88AD
:1029300083850B880385814B98420BD0854B984249
:1029400008D08B4B984205D08A4B984202D08A4BD4
:10295000984201D10B7A038601238382704770B5B8
:10296000002400220023058C4FF6FE7635400584B6
:10297000028C8388048B4FF68F752C40B51E2C403B
:102980000D882C43751E2A400D892A434D882A4301
:102990006A4DA8420BD06F4DA84208D0744DA84292
:1029A00005D0744DA84202D0734DA84213D14FF602
:1029B000F7752A404D892A434FF6FB752A408D88CA
:1029C0002A434FF6FF652B404FF6FF552B408D896C
:1029D0002B43CD892B4383800483CD888586028455
:1029E00070BD70B5002400220023058C4FF6EF76F1
:1029F00035400584028C8388048B48F6FF752C4093
:102A00004FF6FF452C400D884FF6FF7606EA052568
:102A10002C434FF6DF752A400D8906EA05152A4337
:102A20004D8806EA05152A43444DA84202D0494D77
:102A3000A8421DD14FF67F752A404D894FF6FF768B
:102A400006EA05152A434FF6BF752A408D8806EA27
:102A500005152A434FF6FF352B404FF2FF752B40EB
:102A60008D8906EA85052B43CD8906EA85052B432A
:102A700083800483CD880587028470BD70B50024EF
:102A800000220023058C4FF6FF6635400584028C3A
:102A90008388848B4FF68F752C404FF6FC752C4045
:102AA0000D882C434FF6FF552A400D894FF6FF76CF
:102AB00006EA05252A434D8806EA05252A431F4DC7
:102AC000A84202D0234DA8421DD14FF2FF752A40E3
:102AD0004D894FF6FF7606EA05252A434FF6FF3566
:102AE0002A408D8806EA05252A434EF6FF752B40BD
:102AF0004DF6FF752B408D8906EA05152B43CD89D0
:102B000006EA05152B4383808483CD88858702845C
:102B100070BD70B5002200230024058C4EF6FF76B0
:102B200035400584038C8488828B48F6FF752A40E3
:102B30004FF6FF452A400D8820E00000002C0140A0
:102B40000004004000080040000C0040001000405D
:102B50000014004000340140004C0140005001408E
:102B60000054014000180040001C004000200040BC
:102B70000040014000440140004801404FF6FF760C
:102B800006EA05252A434DF6FF752B400D8906EA16
:102B900005352B434D8806EA05352B43FA4DA842EF
:102BA00002D0FA4DA84208D14BF6FF752C408D8912
:102BB0004FF6FF7606EA85152C4384808283CD8804
:102BC000A0F84050038470BD828B4FF2FF331A404F
:102BD0008283828B4FF6FF7303EA01231A438283B9
:102BE0007047F0B50C461546002200210026078CE0
:102BF0004EF6FF7C07EA0C070784828B018C4FF6A8
:102C0000FF7707EA043640F6FF473A404FF6FF7772
:102C100007EA05273A434FF6FF7707EA03373A43B7
:102C2000D94FB8420ED0D94FB8420BD0B0F1804F37
:102C300008D0D74FB84205D0D64FB84202D0D64FB1
:102C4000B84206D14DF6FF77394046F480573943F4
:102C500005E047F6FF57394044F4805739438283F3
:102C60000184F0BD828B4FF6F3731A408283828B0E
:102C70000A4382837047F0B50C46154600220021B6
:102C80000026078C4FF6FF6C07EA0C070784828B3F
:102C9000018C4FF6FF7707EA04264FF60C773A408F
:102CA0004FF6FF7707EA03172F433A43B64FB84270
:102CB0000ED0B64FB8420BD0B0F1804F08D0B44F11
:102CC000B84205D0B34FB84202D0B34FB84206D194
:102CD0004FF6FF57394046F48077394305E04FF20D
:102CE000FF57394044F48077394382830184F0BD33
:102CF000028B4FF2FF331A400283028B4FF6FF73B1
:102D000003EA01231A4302837047F0B50C461546C7
:102D1000002200210026078C4FF6EF7C07EA0C0703
:102D20000784028B018C4FF6FF7707EA041640F602
:102D3000FF473A404FF6FF7707EA03373A434FF62B
:102D4000FF7707EA05273A438F4FB8420ED08F4FDF
:102D5000B8420BD0B0F1804F08D08D4FB84205D0AB
:102D60008C4FB84202D08C4FB84206D14FF6DF7775
:102D7000394046F01007394305E04FF65F77394098
:102D800044F01007394302830184F0BD028B4FF6F3
:102D9000F3731A400283028B0A4302837047F0B533
:102DA0000C46154600220021068C4FF6FE773E4069
:102DB0000684028B018C4FF60C7632407E1C06EAAC
:102DC00003162E433243704EB0420ED06F4EB042C7
:102DD0000BD0B0F1804F08D06D4EB04205D06D4E93
:102DE000B04202D06C4EB04206D14FF6FD76314073
:102DF00044F00106314305E04FF6F576314044F0EA
:102E00000106314302830184F0BD70B505460C46CE
:102E10005D4885420ED05D4885420BD0B5F1804FAC
:102E200008D05B48854205D05A48854202D05A48AE
:102E3000854200D100E000BF208850B92389A288D4
:102E400061882846FFF7ABFFE1882846FFF79EFF21
:102E500025E0208804280AD12389A2886188284691
:102E6000FFF753FFE1882846FFF742FF17E020886D
:102E700008280AD12389A28861882846FFF7FBFE2B
:102E8000E1882846FFF7EEFE09E02389A2886188E1
:102E90002846FFF7A6FEE1882846FFF795FE70BD9D
:102EA0002DE9F04105460C4600260127608808B947
:102EB000022600E00026A088012801D1022700E0B8
:102EC00001272088A0B92389A28861882846FFF7B6
:102ED00066FFE1882846FFF759FF23893A463146C5
:102EE0002846FFF712FFE1882846FFF701FF13E0AD
:102EF0002389A28861882846FFF707FFE1882846D2
:102F0000FFF7F6FE23893A4631462846FFF747FF8A
:102F1000E1882846FFF73AFFBDE8F0810A884B8830
:102F20001A438B881A43CB881A430B891A434B895F
:102F30001A438B891A43A0F8442070474FF6FF715B
:102F4000818000210180C180418001727047002191
:102F5000018041808180C180018141818181C18165
:102F60007047002101804180012181800021C180C2
:102F7000018170470021018041808180C1800181F1
:102F80004181818170470000002C014000340140E4
:102F90000004004000080040000C004021B10288FD
:102FA00042F00102028004E002884FF6FE731A40EC
:102FB0000280704731B1B0F8442042F40042A0F8DA
:102FC000442005E0B0F84420C2F30E02A0F84420EB
:102FD00070471AB183890B43838102E083898B4355
:102FE000838170478182704741EA0203A0F848302C
:102FF00070471AB183890B43838102E083898B4335
:103000008381704701894FF6F87211400181704742
:103010000A46002101894FF68F731940114301813F
:10302000704730B504460D4629462046FFF7F0FFAD
:10303000208940F00700208130BD2DE9F041044691
:103040000D4616461F46602D06D13B4601223146ED
:103050002046FFF75AFE05E03B4601223146204656
:10306000FFF79DFE29462046FFF7D2FF208940F05A
:1030700007002081BDE8F08130B50C4600210189B0
:10308000C9B24FF6FF7505EA0325154325432943C9
:10309000018130BD2DE9F04105460E4617469846A0
:1030A000002443463A4631462846FFF7E5FF2C897F
:1030B0004FF6F870044044F007044FF68F70044058
:1030C00044F070042C81BDE8F081F0B504460D4653
:1030D00016461F463B46324629462046FFF7CCFFA0
:1030E000208940F480402081F0BD018582827047B4
:1030F0000A46002101884FF68F7319401143018061
:103100007047F0B50C4615461E46002100220023EC
:103110000189028B038C4FF6F877394021434FF633
:10312000FC473A4040F201173A434FF6DD773B4007
:103130004FF6FF7707EA06172F433B4301810283CF
:103140000384F0BD0A460021018B4FF68F731940AE
:103150001143018370470A460021018B48F6FF7333
:1031600019404FF6FF7303EA0223194301837047A6
:103170000A460021818B4FF68F73194011438183DA
:1031800070470A460021818B48F6FF7319404FF6BD
:10319000FF7303EA022319438183704721B1028838
:1031A00042F08002028004E002884FF67F731A40EA
:1031B0000280704721B1828842F00402828004E0DC
:1031C00082884FF6FB731A408280704721B1828853
:1031D00042F00802828004E082884FF6F7731A40BA
:1031E0008280704721B1828842F00102828004E02F
:1031F00082884FF6FE731A40828070470A4600218B
:10320000018B4FF6F77319401143018370470A464B
:103210000021018B4FF2FF7319404FF6FF7303EA51
:1032200002231943018370470A460021818B4FF620
:10323000F77319401143818370470A460021818B3F
:103240004FF2FF7319404FF6FF7303EA022319434D
:10325000818370470A460021018B4FF6FB731940AA
:103260001143018370470A460021018B4FF6FF335B
:1032700019404FF6FF7303EA022319430183704795
:103280000A460021818B4FF6FB731940114381835D
:1032900070470A460021818B4FF6FF3319404FF6E5
:1032A000FF7303EA02231943818370470A46002112
:1032B000018B4FF67F7319401143018370470A4613
:1032C0000021018BC1F30E014FF6FF7303EA0223C5
:1032D0001943018370470A460021818B4FF67F73A3
:1032E00019401143818370470A460021818BC1F345
:1032F0000E014FF6FF7303EA0223194381837047DF
:103300000A460021018C4FF6FD73194011430184D8
:1033100070470A460021018C4FF6F773194011439C
:10332000018470470A460021018C4FF6DF73194073
:103330004FF6FF7303EA02131943018470470A46EC
:103340000021018C4FF67F7319404FF6FF7303EA9B
:1033500002131943018470470A460021018C4FF67D
:10336000FF5319404FF6FF7303EA02231943018408
:1033700070470A460021018C4FF2FF7319404FF647
:10338000FF7303EA02231943018470470A460021B0
:10339000018C4DF6FF7319404FF6FF7303EA0233B9
:1033A00019430184704730B5002301248C40A3B237
:1033B000048C9C430484048C02FA01F5ADB22C43C6
:1033C000048430BD30B5002304248C40A3B2048CA7
:1033D0009C430484048C02FA01F5ADB22C430484AE
:1033E00030BD70B503460020002418461830012572
:1033F0008D40ACB21D8CA5431D8409B1082909D1AB
:1034000000EB6100056825F070050560056815434F
:1034100005600EE00D1FC5F34E052844056825F430
:10342000E045056005684FF6FF7606EA022635435B
:10343000056070BD21B1028842F00202028004E002
:1034400002884FF6FD731A400280704721B102884E
:1034500042F00402028004E002884FF6FB731A4037
:103460000280704721B1828842F08002828004E0AD
:1034700082884FF67F731A408280704702884FF629
:10348000F7731A40028002880A43028070478288DC
:103490004FF68F731A40828082880A438280704779
:1034A00002894FF6F8731A40028102890A430281A9
:1034B000704702894FF67F731A40028102890A43DE
:1034C000028170478184704781857047818670478B
:1034D0000187704781877047A0F8401070470288C5
:1034E0004FF6FF431A40028002880A430280704769
:1034F0000146888E70470146088F70470146888FC5
:1035000070470146B1F8400070470146888C70470B
:103510000146088D704702460020138A0B400BB10C
:10352000012000E000207047CA430282704730B596
:103530000246002000230024158A05EA010395892C
:1035400005EA010413B10CB1012000E0002030BDF8
:10355000CA430282704700000E49086070470D4957
:10356000486070470B49886070474AF6AA200949AD
:10357000086070474CF6CC40064908607047014629
:103580000020044AD2680A400AB1012000E000206D
:10359000704700000030004010B50446FA488442ED
:1035A00008D101214015FEF7CDFC00216015FEF782
:1035B000C9FC17E0F548844208D101210015FEF747
:1035C000C1FC00212015FEF7BDFC0BE0F048844251
:1035D00008D10121C803FEF7B5FC00214FF40040DB
:1035E000FEF7B0FC10BD30B5024600200023506845
:1035F000E84C20400D790C6844EA052420435060D3
:103600009068E54C2040D1E902542C434D7944EABE
:10361000450420439060D06A20F470000C7C641E46
:10362000E4B2234340EA0350D06230BD0021016080
:10363000017141718160C16001210174704721B144
:10364000826842F00102826003E0826822F0010297
:103650008260704721B1826842F48072826003E028
:10366000826822F480728260704710B50023CBB26A
:103670001AB144681C43446002E044689C434460BF
:1036800010BD816841F0080181607047014600204B
:103690008A6802F008020AB1012000E000207047A9
:1036A000816841F0040181607047014600208A680A
:1036B00002F004020AB1012000E00020704721B1AD
:1036C000826842F4A002826003E0826822F4A002D1
:1036D00082607047014600208A6802F480020AB1C5
:1036E000012000E00020704710B50A4600210023A9
:1036F000416821F46041531E41EA4331416010BDED
:1037000021B1426842F40062426003E0426822F460
:10371000006242607047F0B504460D46002000216B
:10372000092D11DDE068A5F10A0606EB460707261C
:1037300006FA07F18843A5F10A0606EB460603FAE6
:1037400006F10843E0600CE0206905EB4507072619
:1037500006FA07F1884305EB450603FA06F108432C
:103760002061072A0FDA606B561E06EB86071F26BC
:1037700006FA07F18843561E06EB860605FA06F19F
:103780000843606322E00D2A0FDA206BD61F06EB98
:1037900086071F2606FA07F18843D61F06EB860622
:1037A00005FA06F10843206310E0E06AA2F10D0675
:1037B00006EB86071F2606FA07F18843A2F10D06DD
:1037C00006EB860605FA06F10843E062F0BD21B17A
:1037D000826842F48012826003E0826822F48012E0
:1037E000826070470146C86C80B2704766484C30B2
:1037F0000068704721B1426842F48062426003E091
:10380000426822F480624260704721B1426842F40B
:103810008052426003E0426822F480524260704766
:103820000A460021816821F4E0411143816070471C
:1038300021B1826842F40042826003E0826822F48F
:1038400000428260704721B1826842F402128260B5
:1038500003E0826822F40212826070470146002071
:103860008A6802F400120AB1012000E000207047CB
:10387000F0B504461546002000220026092911DD76
:10388000E068A1F10A0707EB470C072707FA0CF2DB
:103890009043A1F10A0707EB470703FA07F2104329
:1038A000E0600CE0206901EB410C072707FA0CF2FD
:1038B000904301EB410703FA07F210432061A06B2C
:1038C000C0F30156EF1C06F1010CA7EB0C0707EB48
:1038D000870C1F2707FA0CF29043EF1C06F1010C2E
:1038E000A7EB0C0707EB870701FA07F21043A06369
:1038F000F0BD10B50A4600210023816B21F4401170
:10390000531E41EA0351816310BD08B500230093A3
:103910000090009B0B440093009B1A6008BD08B503
:10392000024600200090009201F12800009B1844FC
:1039300000900098006880B208BD0A4600214168E6
:10394000164B1940114341607047416282627047D3
:103950000A460021416821F01F0111434160704770
:1039600040B109490831096841F40001064A0832AA
:10397000116007E004490831096821F40001024A96
:103980000832116070470000002401400028014007
:10399000003C0140FFFEF0FFFDF7F1FFFFFD3FFFA0
:1039A0000246002013680B400BB1012000E000200C
:1039B0007047CA430260704770B50246002000237A
:1039C00000240B125568CEB205EA060415681D40A6
:1039D00015B10CB1012000E0002070BD00220A12D8
:1039E000D343036070470000002044490860091D6C
:1039F0000860091D0860091D086041483F491431ED
:103A00000860704700213D498279002A3AD00A4671
:103A1000126803689A430B461A600A1D126803680D
:103A20009A430B1D1A60027911440A6803681A430D
:103A30000A60324A0832126803689A432F4B0833EF
:103A40001A601A1D126803689A432C4B0C331A60D3
:103A50004279102A0ED11A1F126803681A43274BA5
:103A600008331A601A1D126803681A43234B0C337B
:103A70001A600DE02149427911440A6803681A432B
:103A80000A6005E0027911440A6803689A430A60F3
:103A900070470021016001710C2141710021817189
:103AA00070471649103109680143144A10321160F9
:103AB000704701460020114A143212680A400AB1C8
:103AC000012000E0002070470C4914310860704765
:103AD000014600200022094B1B6803EA0102074B44
:103AE00014331B680B4013B10AB1012000E0002021
:103AF000704702491431086070470000000401401B
:103B0000FFFF0F000648804706480047FEE7FEE734
:103B1000FEE7FEE7FEE7FEE7FEE7FEE7FEE7FEE77D
:103B2000571A00083101000810B50446D4F85C08A3
:103B3000002860DCD4F8600800285CDC04F58162B1
:103B400004F5017104F57E7000F02EFE4FF48160E3
:103B5000005900284FDD04F5017000F039FA0828FB
:103B600010D14FF48160005B81B204F5017000F068
:103B7000C6FAA4F864080820207240F6B830C4F8E9
:103B80005C082CE004F5017000F022FA03281CD137
:103B900004F5017000F023FA012805D004F5017046
:103BA00000F01DFA02281AD14FF48160005B81B247
:103BB00004F5017000F0A3FAA4F864080320207251
:103BC00040F6B830C4F85C0809E004F5017000F074
:103BD000FFF9062803D140F6B830C4F85C084FF46A
:103BE0008160025904F50171F848FDF75AF840F672
:103BF000B830C4F8600810BD0021A0F8B618A0F8CD
:103C0000B41870472DE9F84F044688461546002041
:103C10000090404600F0DCF900F0FF09404600F05B
:103C2000DEF9C6B22946404600F069FA0746207A16
:103C3000082826D12046FFF7DFFFB9F1090F20D170
:103C40000020C4F85C08B4F86408B8420FD1681EBC
:103C500018F8000080280AD009202072D4F87408CF
:103C600078B1B4F86408D4F87418884709E00020E3
:103C70002072D4F8780820B1B4F86408D4F8781821
:103C80008847A9F103000B2875D2DFE800F0064E43
:103C90006087759C9C9C9C9C98002046FFF7ACFF1D
:103CA000012E09D14FF4FA7304F11002211D384698
:103CB00000F021FCE0600AE0022E08D14FF4FA7314
:103CC00004F11002211D384600F032FCE060012EA4
:103CD00001D0022E09D1E068002806DD6B4604F50C
:103CE0007E70E268616800F035FDD4F87C08D8B1D8
:103CF000A4F8AC5804F6AC01404600F071FCC4F8DE
:103D0000A408A4F8AE5804F6AE01404600F099FCB1
:103D1000C4F8A808B4F8AE38B4F8AC18D4F87CC825
:103D200004F6A40005C8E0474EE0207A03280DD130
:103D3000B4F86408B84209D100202072C4F85C08C5
:103D4000D4F8700810B1D4F8700880473CE04FF404
:103D5000FA7304F11002211D384600F006FCE06001
:103D60000020C4F85C086B4604F57E70E268616868
:103D700000F0F0FC28E026E0207A03280DD1B4F80A
:103D80006408B84209D100202072C4F85C08D4F855
:103D9000700810B1D4F87008804715E04FF4FA733A
:103DA00004F11002211D384600F0FDFBE0606B4677
:103DB00004F57E70E268616800F0CCFC04E0204607
:103DC000FFF71AFF00E000BF00BFBDE8F88FD0F892
:103DD0005C18002904DDD0F85C18491EC0F85C1896
:103DE000D0F86018002904DDD0F86018491EC0F82A
:103DF0006018B0F8B618002905DDB0F8B418491CF1
:103E0000A0F8B41802E00021A0F8B418B0F8B01877
:103E1000491CA0F8B018B0F8B0184FF47A7291FBB2
:103E2000F2F240F6940109588A4202DB012180F83F
:103E3000B218704738B50446E06800280DDD6B46BF
:103E400004F57E70E268616800F084FC009808B9AF
:103E5000002038BD6FF00100FBE74FF0FF30F8E7BE
:103E600070B504464FF4FA7204F11001201D00F001
:103E70003FFCE0602046FFF7DDFF0546ADB90020BE
:103E800004F50B642080A070E088401CE080E0888E
:103E9000A4F50B64042808DB0020A4F8B608D4F8C5
:103EA0006C0810B1D4F86C088047284670BD10B576
:103EB000044694F8B20810B12046FFF7D1FFB4F8D9
:103EC000B40841F28831884205DD0020A4F8B40826
:103ED0002046FFF7C5FF10BD38B50446282004F67C
:103EE00034034FF4806204F23441009004F57E7094
:103EF00000F010FC00202072E0602070C4F85C0824
:103F00002046FFF779FE38BD70B504460D464FF4E4
:103F1000FA7304F11002294604F5086000F063F911
:103F200070BD10B50446204600F052F8022803D1B7
:103F3000204600F051F810BD4FF0FF30FBE7C0F80D
:103F400068187047C0F86C187047C0F87C18704744
:103F50002DE9F84304460D4616461F46DDF820803D
:103F60004FF4FA7004F11003221D314600902846E8
:103F700000F011FAE060C4F87478C4F8788820463C
:103F8000FFF758FFBDE8F8832DE9FF4704460D46CB
:103F900016461F46DDE90D9ADDF830804FF4FA72BF
:103FA00004F11000211D4346CDE90091CDE9020244
:103FB0003A463146284600F04FFAE060C4F870A84F
:103FC0002046FFF737FF04B0BDE8F0870048004007
:103FD00001460878000970470146C87870470146D5
:103FE0000878C0F3410070472DE9F04104460E46C1
:103FF00017469846069D20682844801CB84203DD79
:104000004FF0FF30BDE8F081C5F307212268501C56
:104010002060B1542268501C2060B5542168881972
:104020002A46414602F0BAF9206828442060A81CBC
:10403000E8E770B5044606E0F9480088401C80B205
:10404000F74D28800346002BF6D02068801C904254
:1040500001DD002070BD1D122668701C20608D558A
:104060002668701C20608B551846F3E72DE9F04157
:1040700004460D46DDE9077C069EE91E7F2928DD02
:104080001807000E06F0010840EAC80007F0030810
:1040900040EA48000CF0010840EA080010700846A9
:1040A0004FEAE17801EB58684FEAE818A1EBC8182D
:1040B00008F0FF0848F0800882F801804FEAE178B4
:1040C00001EB5868C8F3C71882F80280CD1C226043
:1040D00012E01807000E06F0010840EAC80007F0D9
:1040E000030840EA48000CF0010840EA080050705C
:1040F00091708D1C501C20602846BDE8F08130B5C1
:1041000003460C46012C01DA002030BD1846FFF7AB
:104110005FFFC01E09284AD2DFE800F005363738B5
:10412000393C3A493B00012206E0985C00F08000EF
:1041300008B9521C02E0521CA242F6DB00BF901CE0
:10414000A04201DB0020E0E71046521C185C05028B
:104150001046521C185C05435019A04201DB002098
:10416000D3E72A441846FFF73AFF002804DD901CE5
:10417000A04203DB0020C8E70020C6E7501C185C03
:10418000995C40EA0120C0E700BF00BF00BF00BF4C
:1041900000BF00BF042C08DB587800F0800020B975
:1041A000D878997840EA0120AFE70020ADE70020F9
:1041B000ABE730B502460B46002001210EE0545C0F
:1041C00004F07F044D1EC5EBC505AC402044545C93
:1041D00004F080040CB9491C02E0491C9942EEDB52
:1041E00000BF084430BD2DE9FF4704468846164607
:1041F0001F4600208A4908800320039003980A3054
:10420000B84203D9002004B0BDE8F0870398351800
:1042100003980A300390002028700420687081A061
:104220000068C5F802000420A8710020E871A08A87
:10423000000A2872207D6872206A18B1E87940F07F
:104240000200E871206890B12068007878B1206899
:1042500002F0DAF8814600903A46314603A8236816
:10426000FFF7C2FE002805DA4FF0FF30CBE76FF012
:104270000100C8E7E06898B3E068007880B3E068C0
:1042800002F0C2F8814600903A46314603A8E3683E
:10429000FFF7AAFE002802DA6FF00200B3E72069F8
:1042A00002F0B2F8814600903A46314603A82369ED
:1042B000FFF79AFE002802DA6FF00300A3E7E8791F
:1042C00040F00400E871E06918B1E87940F020009E
:1042D000E871E879217E01F0030140EAC100E8714C
:1042E0006068B0B16068007898B1606802F08CF8DE
:1042F000814600903A46314603A86368FFF774FE92
:10430000002802DA6FF004007DE7E87940F08000D1
:10431000E871A068B0B1A068007898B1A06802F018
:1043200073F8814600903A46314603A8A368FFF728
:104330005BFE002802DA6FF0050064E7E87940F0E0
:104340004000E87100200090019001233246029065
:1043500040460399FFF78AFE55E700B5024610462E
:10436000FFF736FE022803D11046FFF735FE00BDE9
:104370004FF0FF30FBE7FEB505460C461746032617
:104380000020009001900E232246314602902846DC
:10439000FFF76CFEFEBD2DE9FF4704460E461746AB
:1043A0001D46DDF83080032003900CB1207820B941
:1043B0004FF0FF3004B0BDE8F087002342462946A5
:1043C00003A8FFF736FE1649088010B96FF0010008
:1043D000F0E7204602F018F8814623464246294677
:1043E000009003A8FFF700FE002802DA6FF0020039
:1043F000E0E70398401C404502DD6FF00300D9E779
:10440000039A501C0390AE5400200121CDE9000115
:1044100008232A46029038460399FFF727FEC9E78A
:10442000D40100204D5154540000000030B5044622
:104430000D462046FFF7CCFD09280BD12946204622
:10444000FFF75DFEB2490988884201D1002030BDE6
:104450000120FCE70120FAE72DE9FF5F04468946C9
:1044600015461E46DDF838A0DDE9107803200390DC
:104470000CB1207820B94FF0FF3004B0BDE8F09FB8
:10448000204601F0C1FF834623464246394600904C
:1044900003A8FFF7A9FD002802DA6FF00100ECE79E
:1044A000002E0BDD00234246394603A8FFF7C1FD6D
:1044B0009749088028B96FF00200DEE70020944990
:1044C000088003982844404502DD6FF00300D4E7DC
:1044D000039978182A46494601F060FF039828445A
:1044E0000390002003233A468DE8410403990F9876
:1044F000FFF7BCFDC1E7FFB504460D4616461F4653
:104500000320039023463A46314603A8FFF791FD66
:1045100018B94FF0FF3004B0F0BD002000900190BA
:1045200004233246029028460399FFF79FFDF2E7E5
:10453000FFB504460D4616461F460320039023464A
:104540003A46314603A8FFF774FD18B94FF0FF3023
:1045500004B0F0BD00200090019005233246029087
:1045600028460399FFF782FDF2E7FFB504460D46A2
:1045700016461F460320039023463A46314603A8B9
:10458000FFF757FD18B94FF0FF3004B0F0BD002021
:104590000121CDE900010623324602902846039905
:1045A000FFF764FDF1E7FFB504460D4616461F46CA
:1045B0000320039023463A46314603A8FFF739FD0E
:1045C00018B94FF0FF3004B0F0BD0020009001900A
:1045D00007233246029028460399FFF747FDF2E78A
:1045E00070B502460B46002501210EE0505C00F03C
:1045F0007F004E1EC6EBC606B0400544505C00F07E
:10460000800008B9491C03E0491C18888842EDDC89
:1046100000BF0D441E88881C864201DC002070BD4E
:104620000846491C105C04020846491C105C0443FF
:1046300008191E88B04201DD0020F0E71C805018E8
:10464000EDE7F0B503460D4600262C8800202880B3
:1046500001220EE0985C00F07F00511EC1EBC10109
:1046600088400644985C00F0800008B9521C02E0C3
:10467000521CA242EEDB00BF1644901CA04201DB9C
:104680000020F0BD1046521C185C07021046521C58
:10469000185C0743D019A04201DB0020F1E73A443F
:1046A0001846FFF79CFC002805DD901CA04201DBAA
:1046B0000020E6E7921C964201DA0020E1E7A642DC
:1046C00002DCB01A288001E0A01A28809818D8E7E8
:1046D000FEB505460C4617460326002000900190C3
:1046E0000D232246314602902846FFF7BFFCFEBD4F
:1046F000FEB505460C4617460326002000900190A3
:104700000C232246314602902846FFF7AFFCFEBD3F
:10471000D40100202DE9F04104460E4617461D46FF
:10472000DDF8188072B63A46314604F11C0000F0FC
:104730005BF84246294604F12C0000F055F80020B1
:10474000206060602072E06060722061606162B62B
:10475000BDE8F0817FB504460E461D4672B604F1F1
:104760001C0000F08AF80299884218D904F12C0044
:1047700000F083F804280EDD314604F11C00029A93
:1047800000F03CF9042202A904F12C0000F036F9F3
:104790000020286006E04FF0FF30286002E06FF054
:1047A0000100286062B67FBD70B504460E4615460E
:1047B00072B60020286004F12C0000F03FF80428B5
:1047C00010DB042204F1180104F12C0000F067F85A
:1047D000A069002806DD314604F11C00A26900F042
:1047E0005EF8286062B670BD70B504460D46164688
:1047F0001CB991A002F0B6FA70BD2660E560E068D1
:104800006060E068A06000BFF6E710B504461CB920
:1048100089A002F0A7FA10BD0020E0606060A060EF
:10482000206000BFF7E710B504462CB982A002F063
:1048300099FA4FF0FF3010BD2068FCE710B5044630
:104840002CB97DA002F08EFA4FF0FF3010BDD4E9F4
:104850000101884201D10020F8E7D4E90101884232
:1048600003D2D4E90110401AF0E72046FFF7DBFF3E
:10487000D4E90112891A401AE8E770B504462CB948
:104880006DA002F06FFA4FF0FF3070BD2046FFF7C9
:10489000CAFF05462046FFF7D1FF281AF5E72DE9A4
:1048A000F04104460F46164600252CB962A002F0DE
:1048B00059FA681EBDE8F0812FB966A002F052FADD
:1048C0004FF0FF30F6E7D4E90101884214D22046C8
:1048D000FFF7B4FFB04201D9304602E02046FFF7AF
:1048E000ADFF05462A463846616801F057FD60680D
:1048F000284460602846DDE72046FFF794FFE26821
:104900006168891A401AB0420AD935462A463846A3
:10491000616801F043FD6068284460602846C9E78B
:104920002046FFF780FFE2686168891A451A2A4627
:104930003846616801F032FDE0686060721B7919E9
:104940002046FFF7ACFF05442846B3E72DE9F041C8
:1049500004460F46154600262CB945A002F002FA7F
:10496000701EBDE8F0812FB947A002F0FBF94FF0AF
:10497000FF30F6E72046FFF780FFA84205D848A0A1
:1049800002F0F0F94FF0FF30EBE7D4E90101884283
:104990002AD82046FFF747FFD4E90212891A461A9F
:1049A000B54213D82A463946A06801F0F7FCA06842
:1049B0002844A0602046FFF736FFE1680844A1685C
:1049C000884201D1E068A0602846CAE732463946ED
:1049D000A06801F0E3FCE068A060AA1BB9192046BA
:1049E000FFF7B4FF3044BCE72A463946A06801F01F
:1049F000D5FCA0682844A0602846B2E72DE9F04124
:104A000007460C46154600262CB92AA002F0AAF942
:104A1000701EBDE8F0812A4621463846FFF796FF12
:104A20000646AE4205D02CA002F09CF94FF0FF30B4
:104A3000EFE73046EDE700004552524F523A206909
:104A40006E707574207262206973204E554C4C0A4A
:104A5000000000004552524F523A20696E70757442
:104A60002064617461206973204E554C4C0A00002B
:104A70004552524F523A20726220697320656D7020
:104A80007479200A000000004552524F523A2064C7
:104A900061746120697320656D707479200A00006B
:104AA0004552524F523A206E6F206D656D6F72798C
:104AB000200A00004552524F523A2067697A5075D9
:104AC00074446174612062756620697320656D703D
:104AD0007479200A000000004552524F523A204695
:104AE00061696C656420746F2072625772697465C5
:104AF000200A000010B5002400F0C7FF802001F05C
:104B000076F801F003F80446FE2001F070F800F09A
:104B1000FDFF044600F0D9FF204610BD10B500F09F
:104B20009DFFFFF7E7FF0446204610BD2DE9F04F3B
:104B300087B04FF0000A00F0A8FF802001F057F87E
:104B400000F0E4FF8346F32001F051F800F0DEFFAF
:104B5000834600BF6420FBF7C8FF00F096FF81206A
:104B600001F045F80AF101001FFA80FA00F0CEFFCB
:104B70008346BAF57A7F00D102E0BBF1000FE9D19C
:104B800000BF012001F067F80546012001F063F83D
:104B90000646002001F05FF800F097FF46EA05297D
:104BA00029F00309484601F0A9FE019001F0D5FE65
:104BB000344A354BCDE9020101F0BFFD334A344B95
:104BC000CDE9040101F0B3FD074601F0F1FE044612
:104BD000204607B0BDE8F08F2DE9F04F87B04FF0C9
:104BE000000A00F052FF802001F001F800F08EFF73
:104BF0008346F52000F0FBFF00F088FF834600BFEE
:104C00006420FBF772FF00F040FF812000F0EFFF0F
:104C10000AF101001FFA80FA00F078FF8346BAF12A
:104C2000640F00D102E0BBF1000FE9D100BF012009
:104C300001F011F80546012001F00DF806460020AC
:104C400001F009F800F041FF46EA052929F00309BF
:104C5000484601F053FE019001F07FFE0D4A0E4BD5
:104C6000CDE9020101F069FD00220C4BCDE9040100
:104C700001F05DFD074601F09BFE0446204607B0AB
:104C8000BDE8F08F619FC6DE07F7653FCDCCCCCC89
:104C9000CC6C47407644CF7701405F3F000018401E
:104CA00008B501211020FDF733F94020ADF80000D0
:104CB00010208DF8030003208DF802006946264875
:104CC000FDF7EEFB40212448FDF799FC4FF460709E
:104CD000ADF8000028208DF8030003208DF80200B5
:104CE00069461D48FDF7DCFB08BD30B101280ED038
:104CF000022817D003282CD11FE00021174A116089
:104D0000174AC2F8B011154A0832116021E001219A
:104D1000124A11600021124AC2F8B0110F4A08323B
:104D2000116016E000210D4A11600D4AC2F8B01161
:104D300001210A4A083211600BE00021074A116084
:104D40000121074AC2F8B0110021044A083211605B
:104D500000BF00BF7047000000100140AC8122423C
:104D60000080224208B501213D20FDF7D1F8012144
:104D7000FE48FDF766FC2820ADF8000003208DF802
:104D8000020010208DF803006946F948FDF788FB02
:104D9000C020ADF8000003208DF8020010208DF82F
:104DA00003006946F348FDF77BFB4FF48870ADF8CC
:104DB000000048208DF803006946ED48FDF770FBC0
:104DC00001224021EB48FDF71CFC01228021E9482B
:104DD000FDF717FC01220821E548FDF712FC08BD8C
:104DE0002DE9F04105460E4617462DB90022402117
:104DF000E048FDF706FC04E000228021DD48FDF7D5
:104E000000FC00241BE000220821D948FDF7F9FB33
:104E100006F0800028B101222021D548FDF7F1FBE2
:104E200004E000222021D248FDF7EBFB01220821FB
:104E3000CF48FDF7E6FB7006060E601CC4B2082CD6
:104E4000E1DB00241BE000220821C948FDF7D9FB63
:104E500007F0800028B101222021C548FDF7D1FBD1
:104E600004E000222021C248FDF7CBFB01220821EB
:104E7000BF48FDF7C6FB7806070E601CC4B2082CBD
:104E8000E1DB2DB901224021BA48FDF7BAFB04E06D
:104E900001228021B748FDF7B4FBBDE8F0812DE980
:104EA000F04106460F4600252EB900224021B148A8
:104EB000FDF7A7FB04E000228021AE48FDF7A1FB2F
:104EC00000241BE000220821A948FDF79AFB07F007
:104ED000800028B101222021A548FDF792FB04E0C3
:104EE00000222021A248FDF78CFB01220821A048C6
:104EF000FDF787FB7806070E601CC4B2082CE1DBC7
:104F0000002416E0002208219948FDF77AFB680684
:104F1000050E012208219648FDF773FB10219448E5
:104F2000FDF751FB10B145F0010500E000BF601C2A
:104F3000C4B2082CE6DB2EB9012240218D48FDF7D2
:104F400060FB04E0012280218A48FDF75AFB2846D5
:104F5000BDE8F08110B5D32280210020FFF740FF8B
:104F6000D32280210120FFF73BFF10BD2DE9F04F38
:104F700091B00546DFF800B2804F81480D905DB9D1
:104F800001210020FFF78BFF040202210020FFF720
:104F900086FF044364080CE0012D0AD10121084674
:104FA000FFF77DFF040202210120FFF778FF044391
:104FB0006408204601F0A2FC059001F0CEFC00221E
:104FC000704BCDE9060101F02AFC00226E4BCDE9C1
:104FD000080101F0B2FBCDE90A0101F0E9FC064647
:104FE00087F000484FF081400D9901F08FFA394663
:104FF0000B90384601F08AFA0A900B9901F080FA7A
:1050000081464FF081400D9901F080FA59460B908E
:1050100001F0AEFA82464FF080400D9901F076FA29
:105020000F903146504601F071FA49460B9001F05D
:1050300015FA0E900F9801F090FCCDE9080140465A
:1050400001F08BFCCDE904010E9801F086FCCDE95E
:10505000000102F069FBCDE90201DDE9042301F062
:10506000C5FACDE90601DDE9082301F0D8FBCDE959
:105070000A0101F09DFC0E9000210E9801F0B4FC95
:1050800003D80E9811B0BDE8F08F0C963F480E90F3
:105090000C9801F062FC3E4A3E4BCDE9040101F060
:1050A0004CFBCDE908010E9801F057FCCDE9060153
:1050B000DDE9082301F09AFACDE90A0101F078FC54
:1050C0000E9031460C9801F021FA0C900C9801F0EA
:1050D00044FC314A314BCDE9040101F02EFBCDE90E
:1050E00008010E9801F039FCCDE90601DDE908233D
:1050F00001F07CFACDE90A0101F05AFC0E9031462C
:105100000C9801F003FA0C900C9801F026FC244A4C
:10511000244BCDE9040101F010FBCDE908010E9804
:1051200001F01BFCCDE90601DDE9082301F0FFFADF
:10513000CDE90A0101F03CFC0E9031460C9801F0DB
:10514000E5F90C900C9801F008FC174A174BCDE9D3
:10515000040101F0F2FACDE908010E9801F0FDFB1F
:10516000CDE90601DDE9082322E00000000230005D
:10517000000C0140001401400000C8423211803B85
:105180007F051BB50000E04000E07A401F0572C3B8
:10519000F163CC5D4BC80140BB82C87D062F653FE3
:1051A00093C266C7E03DD43ECE563151E2425E3EE8
:1051B00001F0BDFACDE90A0101F0FAFB0E9031468B
:1051C0000C9801F0A3F90C900C9801F0C6FB0C4A66
:1051D0000C4BCDE9040101F0B0FACDE908010E98BD
:1051E00001F0BBFBCDE90601DDE9082301F0FEF982
:1051F000CDE90A0101F0DCFB0E900E9842E70000B9
:105200003EFAE46127F3E43D10B540F225515448DD
:10521000FDF7A2F8002846D05248007800283DD17A
:105220004F48FDF719F8C1B24F4802780078401C8A
:105230004D4B18704D48815418460078022825DDE2
:105240004B480078012810D118460078801E474945
:10525000085C6F2827D118460078401E085C6B2830
:1052600021D10220424908701DE03F480078401ECD
:105270003E49085C6D2816D13B480078801E085CCA
:105280006D2810D10120374908700CE036480078AD
:10529000102808DB00203449087004E03048FCF78F
:1052A000DBFF3449087010BD00BF2D49098801F0AB
:1052B00040010029F9D02A49091D0880704710B51E
:1052C00086B0044601210420FCF722FE0121480497
:1052D000FCF72BFE2248FCF77FFE0420ADF81400FB
:1052E00003208DF8160018208DF8170005A9224814
:1052F000FDF7D6F80820ADF8140004208DF817004B
:1053000005A91D48FDF7CCF826208DF800000320E4
:105310008DF801008DF8020001208DF80300684629
:10532000FCF71FFC01940020ADF80800ADF80A005E
:10533000ADF80C00ADF810000C20ADF80E0001A97E
:105340000748FCF78CFE012240F225510448FCF787
:105350001EFF01210248FCF70EFF06B010BD000041
:1053600000440040DA010020D90100204023002041
:10537000DB010020D80100200008014000B587B003
:1053800001214FF40170FCF7C3FD4FF40040FCF71E
:1053900023FD0220ADF8040000208DF8070001A9CC
:1053A0002E48FDF77DF82E48FEF7F6F80020029013
:1053B0008DF80C008DF80D004FF460200490002053
:1053C000059001208DF8180002A92548FEF70BF979
:1053D00001212348FEF733F92148FEF752F900BFB7
:1053E0001F48FEF753F90028FAD11D48FEF758F977
:1053F00000BF1B48FEF759F90028FAD107B000BDDD
:1054000010B504460723012221461548FEF783F90B
:1054100001211348FEF753F900BF02211048FEF79F
:10542000BFFA0028F9D00E48FEF7DCF910BD2DE9CF
:10543000F04107460C460025002608E03846FFF7F5
:10544000DFFF05440520FBF750FB701CC6B2A642E7
:10545000F4DBB5FBF4F080B2BDE8F0810008014058
:105460000024014070B505460C4600F0EDF9D0204F
:1054700000F094FA00F025FA18B100F003FA0120C8
:1054800070BD284600F08AFA00F01BFA204600F0B2
:1054900085FA00F016FA18B100F0F4F90120EFE7F0
:1054A00000F0F0F90020EBE770B504460025BC2CB5
:1054B00001DB012510E0622C01DB02250CE02A2C27
:1054C00001DB032508E0142C01DB042504E00A2C91
:1054D00001DB052500E0062529461A20FFF7C2FF5B
:1054E00070BD70B50446B4F57A7F01DD4FF47A746F
:1054F000042C00DA04244FF47A7090FBF4F0401E80
:10550000C5B229461920FFF7ADFF0546264604EB34
:10551000D671C1F34F00FFF7C7FF70BD70B50446E9
:1055200000F092F9D02000F039FA00F0CAF92046D4
:1055300000F034FA00F0C5F900F086F9D12000F04F
:105540002DFA00F0BEF9002000F051FA054600F0F7
:1055500099F9284670BD10B50446E006010E1C20DE
:10556000FFF780FF10BD10B50446E006010E1B20BA
:10557000FFF778FF10BD38B501210846FCF7C8FCDD
:1055800001210420FCF7C4FC4FF40040ADF80000FA
:1055900010208DF8030003208DF80200694695481D
:1055A000FCF77EFF01219448FDF74BF8002093495A
:1055B000086000F032F980216B20FFF753FF642070
:1055C000FBF793FA00216B20FFF74CFF0320FFF756
:1055D000CAFF0020FFF7BFFF3220FFF782FF002144
:1055E0003820FFF73FFF00216A20FFF73BFF002133
:1055F0002320FFF737FF80213720FFF733FF752087
:10560000FFF78CFF0446682C0BD101216B20FFF7BC
:1056100029FF00216C20FFF725FF3220FFF761FFF3
:1056200001E0012038BD0020FCE72DE9F0410646ED
:105630000F4614461D4600F007F9002141EA4601D5
:10564000C8B200F0ABF900F03CF920B100F01AF953
:105650000120BDE8F081384600F0A0F900F031F9F2
:1056600000F0F2F8012101EB4601C8B200F096F912
:1056700000F027F90DE0012C04D1002000F0B7F96B
:10568000287003E0012000F0B2F92870601EC4B257
:105690006D1C002CEFD100F0F5F80020D9E72DE9C2
:1056A000F84F6B46022241216820FFF7BEFF9DF8AC
:1056B00001009DF8001040EA01200FFA80FA5046E0
:1056C00001F021F9804600224D4B01F0A8F8064672
:1056D0004C4A4D4B00F08AFF044601F069F98346BD
:1056E0004A49584600F012FF044601F01DF900B285
:1056F000BDE8F88F2DE9FC4104460D4616466B4681
:10570000062243216820FFF790FF0746BFB99DF8A6
:1057100001009DF8001040EA012000B220809DF8B1
:1057200003009DF8021040EA012000B228809DF895
:1057300005009DF8041040EA012000B23080384690
:10574000BDE8FC812DE9FC4104460D4616466B463A
:1057500006223B216820FFF768FF0746BFB99DF886
:1057600001009DF8001040EA012000B220809DF861
:1057700003009DF8021040EA012000B228809DF845
:1057800005009DF8041040EA012000B23080384640
:10579000BDE8FC812DE9F04105460E4617469846C6
:1057A00000F052F8002141EA4501C8B200F0F6F8D5
:1057B00000F087F820B100F065F80120BDE8F08125
:1057C000304600F0EBF800F07CF800240CE018F80C
:1057D000040000F0E3F800F074F818B100F052F89B
:1057E0000120EBE7601CC4B2BC42F0DB00F04AF8D9
:1057F0000020E3E70008014000023000BC01214224
:1058000000407540A4703D0AD74342400000C842A2
:1058100010B50220FBF745F910BD08B5012108209D
:10582000FCF776FBC020ADF8000010208DF80300D7
:1058300003208DF8020069468548FCF731FEC0213F
:105840008348FCF7DAFE08BD10B58148006820F0F7
:1058500070407F4908600846006840F0405008608A
:1058600001207C4908607C49C1F89801FFF7D0FF0E
:10587000002078490860FFF7CBFF00207649C1F887
:10588000980110BD10B57248006820F07040704952
:1058900008600846006840F04050086000206D49EC
:1058A000091F08606C49C1F89C01FFF7B1FF012096
:1058B0006849091F08606849C1F89C01FFF7A8FF03
:1058C00010BD10B500246248006820F070406049A7
:1058D00008600846006840F00040086001205D490B
:1058E0000860FFF795FF01205B49C1F89801FFF7B9
:1058F0008FFF07E0601CC4B2FA2C03DDFFF7C2FF84
:10590000012010BD5348803800680028F2D1514969
:10591000091F086000BFF4E710B500204D49091FBA
:1059200008604B48006820F070404949086008460C
:10593000006840F04050086000204749C1F89C01D1
:10594000FFF766FF01204349091F0860FFF760FF6A
:1059500000204149C1F8980110BD10B500203D4913
:10596000091F08603A48006820F070403849086014
:105970000846006840F04050086001203649C1F8F0
:105980009C01FFF745FF01203249091F0860FFF71E
:105990003FFF00203049C1F8980110BD70B50446A2
:1059A0002B48006820F070402949086008460068CC
:1059B00040F04050086000202649091F086000257B
:1059C00012E0E009234908606006040E0120224924
:1059D000C1F89801FFF71CFF00201E49091F08604D
:1059E000FFF716FF681CC5B2082DEADB70BD70B565
:1059F000054600241648006820F0704014490860ED
:105A00000846006840F000400860002615E00020CD
:105A10001049091F0860FFF7FBFE01200E49C1F87D
:105A200098016006040E0B488038006808B1601CBD
:105A3000C4B2FFF7EDFE701CC6B2082EE7DB15B945
:105A4000FFF78BFF01E0FFF767FF204670BD000006
:105A5000000C01409C8121420080214208B50121B7
:105A60000820FCF755FAC020ADF8000010208DF892
:105A7000030003208DF8020069469048FCF710FDF2
:105A8000C0218E48FCF7B9FD08BD10B58B480068F1
:105A900020F07040894908600846006840F0405096
:105AA00008600120864908608649C1F898010420F1
:105AB000FAF7F7FF0020824908600420FAF7F1FFA7
:105AC00000208049C1F8980110BD10B57B480068DE
:105AD00020F07040794908600846006840F0405066
